:020000040800F2
:10000000600600206D0100087501000877010008F6
:10001000790100087B0100087D0100080000000054
:100020000000000000000000000000007F01000848
:10003000810100080000000083010008850100081C
:100040008701000887010008870100088701000870
:100050008701000887010008870100088701000860
:100060008701000887010008870100088701000850
:100070008701000887010008870100088701000840
:100080008701000887010008870100088701000830
:100090008701000887010008870100088701000820
:1000A0008701000887010008870100088701000810
:1000B0008701000887010008870100088701000800
:1000C00087010008870100088701000887010008F0
:1000D00087010008870100088701000887010008E0
:1000E00087010008870100088701000800F002F876
:1000F00000F02CF80AA090E8000C82448344AAF196
:100100000107DA4501D100F021F8AFF2090EBAE893
:100110000F0013F0010F18BFFB1A43F0010318473B
:1001200030070000400700000023002400250026BF
:10013000103A28BF78C1FBD8520728BF30C148BF4A
:100140000B6070471FB51FBD10B510BD00F031F832
:100150001146FFF7F7FF00F0EFF900F04FF803B496
:10016000FFF7F2FF03BC00F057F800000948804792
:1001700009480047FEE7FEE7FEE7FEE7FEE7FEE789
:10018000FEE7FEE7FEE7FEE704480549054A064BA1
:100190007047000089040008ED000008600000209E
:1001A0006006002060020020600200207047704757
:1001B0007047754600F02CF8AE4605006946534678
:1001C00020F00700854618B020B5FFF7DDFFBDE839
:1001D00020404FF000064FF000074FF000084FF0AE
:1001E000000B21F00701AC46ACE8C009ACE8C0093F
:1001F000ACE8C009ACE8C0098D46704710B50446AC
:10020000AFF300802046BDE81040FFF7A8BF000014
:10021000004870470000002001491820ABBEFEE7EF
:100220002600020070472DE9F04102460025002615
:10023000002000230024002791F803C00CF00F05D4
:1002400091F803C00CF0100CBCF1000F03D091F832
:1002500002C04CEA050591F800C0BCF1000F31D096
:10026000146800202BE04FF0010C0CFA00F3B1F8F9
:1002700000C00CEA03069E4220D183004FF00F0C11
:100280000CFA03F7BC4305FA03FC4CEA040491F8AA
:1002900003C0BCF1280F06D14FF0010C0CFA00FC92
:1002A000C2F814C00AE091F803C0BCF1480F05D1B0
:1002B0004FF0010C0CFA00FCC2F810C0401C0828DA
:1002C000D1D31460B1F800C0BCF1FF0F34DD546825
:1002D00000202EE000F1080C4FF0010808FA0CF3A2
:1002E000B1F800C00CEA03069E4221D183004FF012
:1002F0000F0C0CFA03F7BC4305FA03FC4CEA0404A8
:1003000091F803C0BCF1280F05D100F1080C08FAE0
:100310000CF8C2F8148091F803C0BCF1480F07D163
:1003200000F1080C4FF0010808FA0CF8C2F8108030
:10033000401C0828CED35460BDE8F081024600205E
:1003400093680B400BB1012000E000207047416131
:10035000704701617047000029B1064A9269024363
:10036000044B9A6104E0034A92698243014B9A610B
:10037000704700000010024010B500F001F810BDF9
:100380000CB50020019000903348006840F48030A4
:100390003149086000BF3048006800F40030009028
:1003A0000198401C0190009818B90198B0F5A06F11
:1003B000F1D12948006800F4003010B1012000900C
:1003C00001E0002000900098012843D123480068F4
:1003D00040F01000214908600846006820F007003E
:1003E00008600846006840F0020008601A4840684B
:1003F000194948600846406848600846406840F42B
:10040000806048600846406820F47C1048600846D8
:10041000406840F4E81048600846006840F080708A
:10042000086000BF0C48006800F000700028F9D098
:100430000948406820F003000749486008464068C2
:1004400040F00200486000BF0348406800F00C0024
:100450000828F9D10CBD0000001002400020024025
:10046000042808D14FF0E021096941F004014FF060
:10047000E022116107E04FF0E021096921F0040159
:100480004FF0E0221161704710B51348006840F04A
:1004900001001149086008464068104908400E49AB
:1004A0004860084600680E4908400B490860084645
:1004B000006820F4802008600846406820F4FE00B0
:1004C00048604FF41F008860FFF756FF4FF0006050
:1004D0000449086010BD0000001002400000FFF851
:1004E000FFFFF6FE08ED00E010B56FF00400FFF727
:1004F000B7FF10BD014601EBC102521E4FF0E023D1
:100500005A6100229A611A46126942F001021A6188
:1005100000BF4FF0E022106900F001021AB100F4B0
:100520008032002AF5D04FF0E022126922F0010259
:100530004FF0E0231A617047FFF7D6FF00F05EF935
:100540004FF44061AB48FFF704FF51E14FF4004125
:10055000A948FFF7F3FED8B94FF48061A548FFF72B
:10056000F6FE4FF40061A348FFF7F3FE40F6F76094
:10057000FFF7C0FF4FF400619E48FFF7E8FE4FF41D
:1005800080619C48FFF7E5FE40F6F760FFF7B2FF99
:100590004FF480519848FFF7D1FED8B94FF48061ED
:1005A0009448FFF7D4FE4FF400619248FFF7D1FE64
:1005B00040F65450FFF79EFF4FF400618D48FFF75F
:1005C000C6FE4FF480618B48FFF7C3FE40F65450DF
:1005D000FFF790FF02218848FFF7B0FED8B94FF42B
:1005E00080618448FFF7B3FE4FF400618148FFF754
:1005F000B0FE40F6CD30FFF77DFF4FF400617D483F
:10060000FFF7A5FE4FF480617A48FFF7A2FE40F69F
:10061000CD30FFF76FFF4FF480717748FFF78EFE04
:10062000D8B94FF480617348FFF791FE4FF4006131
:100630007048FFF78EFE40F61930FFF75BFF4FF46E
:1006400000616C48FFF783FE4FF480616948FFF753
:1006500080FE40F61930FFF74DFF80216648FFF716
:100660006DFED8B94FF480616248FFF770FE4FF419
:1006700000616048FFF76DFE40F6F110FFF73AFFAA
:100680004FF400615B48FFF762FE4FF48061594808
:10069000FFF75FFE40F6F110FFF72CFF40215648B0
:1006A000FFF74CFED8B94FF480615248FFF74FFE78
:1006B0004FF400614F48FFF74CFE40F6E600FFF7AD
:1006C00019FF4FF400614B48FFF741FE4FF4806182
:1006D0004848FFF73EFE40F6E600FFF70BFF2021FB
:1006E0004548FFF72BFED8B94FF480614148FFF72A
:1006F0002EFE4FF400613F48FFF72BFE4FF4FB60E6
:10070000FFF7F8FE4FF400613A48FFF720FE4FF480
:1007100080613848FFF71DFE4FF4FB60FFF7EAFEEB
:1007200010213548FFF70AFED8B94FF480613148EF
:10073000FFF70DFE4FF400612E48FFF70AFE40F26E
:100740006A70FFF7D7FE4FF400612A48FFF7FFFDFC
:100750004FF480612748FFF7FCFD40F26A70FFF715
:10076000C9FE08212448FFF7E9FDD8B94FF480619C
:100770002048FFF7ECFD4FF400611E48FFF7E9FD4C
:1007800040F2AA60FFF7B6FE4FF400611948FFF788
:10079000DEFD4FF480611748FFF7DBFD40F2AA60F1
:1007A000FFF7A8FE04211448FFF7C8FDD8B94FF49D
:1007B00080611048FFF7CBFD4FF400610D48FFF753
:1007C000C8FD40F2E750FFF795FE4FF4006109487D
:1007D000FFF7BDFD4FF480610648FFF7BAFD40F218
:1007E000E750FFF787FE4FF440610248FFF7B1FD85
:1007F000ACE60000000C01400008014008B50121F2
:100800000C20FFF7A9FD49F2FE10ADF800004820CA
:100810008DF8030003208DF8020069460A48FFF7AF
:1008200002FD4FF44060ADF8000001460748FFF7B5
:1008300090FD03208DF8020010208DF8030069461A
:100840000248FFF7F0FC08BD00080140000C014021
:100850006008000800000020600600002801000871
:040000050800016D81
:00000001FF
